{
  "_format": "hh-sol-artifact-1",
  "contractName": "Election",
  "sourceName": "contracts/Election.sol",
  "abi": [
    {
      "inputs": [
        {
          "internalType": "string[]",
          "name": "candidateNames",
          "type": "string[]"
        }
      ],
      "stateMutability": "nonpayable",
      "type": "constructor"
    },
    {
      "inputs": [
        {
          "internalType": "uint256",
          "name": "",
          "type": "uint256"
        }
      ],
      "name": "candidates",
      "outputs": [
        {
          "internalType": "string",
          "name": "name",
          "type": "string"
        },
        {
          "internalType": "uint256",
          "name": "voteCount",
          "type": "uint256"
        }
      ],
      "stateMutability": "view",
      "type": "function"
    },
    {
      "inputs": [],
      "name": "candidatesCount",
      "outputs": [
        {
          "internalType": "uint256",
          "name": "",
          "type": "uint256"
        }
      ],
      "stateMutability": "view",
      "type": "function"
    },
    {
      "inputs": [
        {
          "internalType": "uint256",
          "name": "id",
          "type": "uint256"
        }
      ],
      "name": "checkVotes",
      "outputs": [
        {
          "internalType": "uint256",
          "name": "",
          "type": "uint256"
        }
      ],
      "stateMutability": "view",
      "type": "function"
    },
    {
      "inputs": [],
      "name": "getCandidates",
      "outputs": [
        {
          "components": [
            {
              "internalType": "string",
              "name": "name",
              "type": "string"
            },
            {
              "internalType": "uint256",
              "name": "voteCount",
              "type": "uint256"
            }
          ],
          "internalType": "struct Election.Candidate[]",
          "name": "",
          "type": "tuple[]"
        }
      ],
      "stateMutability": "view",
      "type": "function"
    },
    {
      "inputs": [
        {
          "internalType": "address",
          "name": "voter",
          "type": "address"
        }
      ],
      "name": "giveRightToVote",
      "outputs": [],
      "stateMutability": "nonpayable",
      "type": "function"
    },
    {
      "inputs": [],
      "name": "pollCreator",
      "outputs": [
        {
          "internalType": "address",
          "name": "",
          "type": "address"
        }
      ],
      "stateMutability": "view",
      "type": "function"
    },
    {
      "inputs": [
        {
          "internalType": "uint256",
          "name": "_candidateId",
          "type": "uint256"
        }
      ],
      "name": "vote",
      "outputs": [],
      "stateMutability": "nonpayable",
      "type": "function"
    },
    {
      "inputs": [
        {
          "internalType": "address",
          "name": "",
          "type": "address"
        }
      ],
      "name": "voters",
      "outputs": [
        {
          "internalType": "uint256",
          "name": "vote",
          "type": "uint256"
        },
        {
          "internalType": "bool",
          "name": "voted",
          "type": "bool"
        }
      ],
      "stateMutability": "view",
      "type": "function"
    }
  ],
  "bytecode": "0x60806040523480156200001157600080fd5b506040516200124338038062001243833981810160405281019062000037919062000325565b336000806101000a81548173ffffffffffffffffffffffffffffffffffffffff021916908373ffffffffffffffffffffffffffffffffffffffff160217905550600060038190555060005b8151811015620001695760026040518060400160405280848481518110620000d3577f4e487b7100000000000000000000000000000000000000000000000000000000600052603260045260246000fd5b602002602001015181526020016000815250908060018154018082558091505060019003906000526020600020906002020160009091909190915060008201518160000190805190602001906200012c92919062000171565b50602082015181600101555050600360008154809291906200014e9062000476565b91905055508080620001609062000476565b91505062000082565b505062000551565b8280546200017f9062000440565b90600052602060002090601f016020900481019282620001a35760008555620001ef565b82601f10620001be57805160ff1916838001178555620001ef565b82800160010185558215620001ef579182015b82811115620001ee578251825591602001919060010190620001d1565b5b509050620001fe919062000202565b5090565b5b808211156200021d57600081600090555060010162000203565b5090565b60006200023862000232846200039e565b6200036a565b9050808382526020820190508260005b858110156200027c5781518501620002618882620002f8565b84526020840193506020830192505060018101905062000248565b5050509392505050565b60006200029d6200029784620003cd565b6200036a565b905082815260208101848484011115620002b657600080fd5b620002c38482856200040a565b509392505050565b600082601f830112620002dd57600080fd5b8151620002ef84826020860162000221565b91505092915050565b600082601f8301126200030a57600080fd5b81516200031c84826020860162000286565b91505092915050565b6000602082840312156200033857600080fd5b600082015167ffffffffffffffff8111156200035357600080fd5b6200036184828501620002cb565b91505092915050565b6000604051905081810181811067ffffffffffffffff8211171562000394576200039362000522565b5b8060405250919050565b600067ffffffffffffffff821115620003bc57620003bb62000522565b5b602082029050602081019050919050565b600067ffffffffffffffff821115620003eb57620003ea62000522565b5b601f19601f8301169050602081019050919050565b6000819050919050565b60005b838110156200042a5780820151818401526020810190506200040d565b838111156200043a576000848401525b50505050565b600060028204905060018216806200045957607f821691505b6020821081141562000470576200046f620004f3565b5b50919050565b6000620004838262000400565b91507fffffffffffffffffffffffffffffffffffffffffffffffffffffffffffffffff821415620004b957620004b8620004c4565b5b600182019050919050565b7f4e487b7100000000000000000000000000000000000000000000000000000000600052601160045260246000fd5b7f4e487b7100000000000000000000000000000000000000000000000000000000600052602260045260246000fd5b7f4e487b7100000000000000000000000000000000000000000000000000000000600052604160045260246000fd5b610ce280620005616000396000f3fe608060405234801561001057600080fd5b50600436106100885760003560e01c806375c3f61b1161005b57806375c3f61b146101165780638c4cde81146101345780639e7b8d6114610164578063a3ec138d1461018057610088565b80630121b93f1461008d57806306a49fce146100a95780632d35a8a2146100c75780633477ee2e146100e5575b600080fd5b6100a760048036038101906100a2919061071f565b6101b1565b005b6100b16102e4565b6040516100be91906109bd565b60405180910390f35b6100cf6103df565b6040516100dc9190610a6f565b60405180910390f35b6100ff60048036038101906100fa919061071f565b6103e5565b60405161010d9291906109df565b60405180910390f35b61011e6104a1565b60405161012b91906109a2565b60405180910390f35b61014e6004803603810190610149919061071f565b6104c5565b60405161015b9190610a6f565b60405180910390f35b61017e600480360381019061017991906106f6565b61051f565b005b61019a600480360381019061019591906106f6565b61069b565b6040516101a8929190610a8a565b60405180910390f35b6000600160003373ffffffffffffffffffffffffffffffffffffffff1673ffffffffffffffffffffffffffffffffffffffff16815260200190815260200160002090508060010160009054906101000a900460ff1615610246576040517f08c379a000000000000000000000000000000000000000000000000000000000815260040161023d90610a0f565b60405180910390fd5b6000821015801561025957506003548211155b61026257600080fd5b60018160010160006101000a81548160ff021916908315150217905550600282815481106102b9577f4e487b7100000000000000000000000000000000000000000000000000000000600052603260045260246000fd5b906000526020600020906002020160010160008154809291906102db90610bc6565b91905055505050565b60606002805480602002602001604051908101604052809291908181526020016000905b828210156103d6578382906000526020600020906002020160405180604001604052908160008201805461033b90610b94565b80601f016020809104026020016040519081016040528092919081815260200182805461036790610b94565b80156103b45780601f10610389576101008083540402835291602001916103b4565b820191906000526020600020905b81548152906001019060200180831161039757829003601f168201915b5050505050815260200160018201548152505081526020019060010190610308565b50505050905090565b60035481565b600281815481106103f557600080fd5b906000526020600020906002020160009150905080600001805461041890610b94565b80601f016020809104026020016040519081016040528092919081815260200182805461044490610b94565b80156104915780601f1061046657610100808354040283529160200191610491565b820191906000526020600020905b81548152906001019060200180831161047457829003601f168201915b5050505050908060010154905082565b60008054906101000a900473ffffffffffffffffffffffffffffffffffffffff1681565b60008060028381548110610502577f4e487b7100000000000000000000000000000000000000000000000000000000600052603260045260246000fd5b906000526020600020906002020160010154905080915050919050565b60008054906101000a900473ffffffffffffffffffffffffffffffffffffffff1673ffffffffffffffffffffffffffffffffffffffff163373ffffffffffffffffffffffffffffffffffffffff16146105ad576040517f08c379a00000000000000000000000000000000000000000000000000000000081526004016105a490610a2f565b60405180910390fd5b600160008273ffffffffffffffffffffffffffffffffffffffff1673ffffffffffffffffffffffffffffffffffffffff16815260200190815260200160002060010160009054906101000a900460ff161561063d576040517f08c379a000000000000000000000000000000000000000000000000000000000815260040161063490610a4f565b60405180910390fd5b6000600160008373ffffffffffffffffffffffffffffffffffffffff1673ffffffffffffffffffffffffffffffffffffffff16815260200190815260200160002060010160006101000a81548160ff02191690831515021790555050565b60016020528060005260406000206000915090508060000154908060010160009054906101000a900460ff16905082565b6000813590506106db81610c7e565b92915050565b6000813590506106f081610c95565b92915050565b60006020828403121561070857600080fd5b6000610716848285016106cc565b91505092915050565b60006020828403121561073157600080fd5b600061073f848285016106e1565b91505092915050565b60006107548383610947565b905092915050565b61076581610b19565b82525050565b600061077682610ac3565b6107808185610ae6565b93508360208202850161079285610ab3565b8060005b858110156107ce57848403895281516107af8582610748565b94506107ba83610ad9565b925060208a01995050600181019050610796565b50829750879550505050505092915050565b6107e981610b2b565b82525050565b60006107fa82610ace565b6108048185610af7565b9350610814818560208601610b61565b61081d81610c6d565b840191505092915050565b600061083382610ace565b61083d8185610b08565b935061084d818560208601610b61565b61085681610c6d565b840191505092915050565b600061086e600e83610b08565b91507f416c726561647920766f7465642e0000000000000000000000000000000000006000830152602082019050919050565b60006108ae603883610b08565b91507f4f6e6c79207468652063726561746f72206f662074686520706f6c6c2063616e60008301527f20676976652074686520726967687420746f20766f74652e00000000000000006020830152604082019050919050565b6000610914601883610b08565b91507f54686520766f74657220616c726561647920766f7465642e00000000000000006000830152602082019050919050565b6000604083016000830151848203600086015261096482826107ef565b91505060208301516109796020860182610984565b508091505092915050565b61098d81610b57565b82525050565b61099c81610b57565b82525050565b60006020820190506109b7600083018461075c565b92915050565b600060208201905081810360008301526109d7818461076b565b905092915050565b600060408201905081810360008301526109f98185610828565b9050610a086020830184610993565b9392505050565b60006020820190508181036000830152610a2881610861565b9050919050565b60006020820190508181036000830152610a48816108a1565b9050919050565b60006020820190508181036000830152610a6881610907565b9050919050565b6000602082019050610a846000830184610993565b92915050565b6000604082019050610a9f6000830185610993565b610aac60208301846107e0565b9392505050565b6000819050602082019050919050565b600081519050919050565b600081519050919050565b6000602082019050919050565b600082825260208201905092915050565b600082825260208201905092915050565b600082825260208201905092915050565b6000610b2482610b37565b9050919050565b60008115159050919050565b600073ffffffffffffffffffffffffffffffffffffffff82169050919050565b6000819050919050565b60005b83811015610b7f578082015181840152602081019050610b64565b83811115610b8e576000848401525b50505050565b60006002820490506001821680610bac57607f821691505b60208210811415610bc057610bbf610c3e565b5b50919050565b6000610bd182610b57565b91507fffffffffffffffffffffffffffffffffffffffffffffffffffffffffffffffff821415610c0457610c03610c0f565b5b600182019050919050565b7f4e487b7100000000000000000000000000000000000000000000000000000000600052601160045260246000fd5b7f4e487b7100000000000000000000000000000000000000000000000000000000600052602260045260246000fd5b6000601f19601f8301169050919050565b610c8781610b19565b8114610c9257600080fd5b50565b610c9e81610b57565b8114610ca957600080fd5b5056fea26469706673582212209be683d5fe15bf9375b29642f9d95309d5ea6a4590504a67ae32f50091bfd6eb64736f6c63430008000033",
  "linkReferences": {},
  "deployedLinkReferences": {}
}